:020000040800F2
:100000000050002021020008270200082B020008EF
:100010009D020008A1020008E9020008000000009B
:100020000000000000000000000000003103000894
:10003000350300080000000039030008710D0008B6
:100040004D0300084D0300084D0300084D03000850
:100050004D0300084D030008ED0A0008090B0008D5
:100060004D0300084D0300084D0300084D03000830
:100070004D0300084D0300084D0300084D03000820
:100080004D0300084D0300084D0300084D03000810
:100090004D0300084D0300084D0300084D03000800
:1000A0004D0300084D0300084D0300084D030008F0
:1000B0004D0300084D0300084D0300084D030008E0
:1000C0004D0300084D0300084D0300084D030008D0
:1000D0004D0300084D0300084D0300084D030008C0
:1000E0004D0300084D0300084D0300080000000008
:1000F0000000000000000000000000000000000000
:1001000000000000000000005FF808F100B583B0B7
:1001100000F0AAF9304B314A1360314A1360314B79
:10012000314A32498B4204D21168196004330432D7
:10013000F7E72A4B1A682E4B9A4200D0FEE7284B6D
:100140001A682C4B9A42F9D1234B2B4A13602B4A45
:1001500013602B4B02E000221A600433294A9342B9
:10016000F9D3254B1B6813B9244B1B6803B1FEE779
:1001700000F086F9694601A800F022F9224C234BD1
:10018000E41AA4100025AC4214DC214C214BE41AE3
:10019000A4100025AC4213DC0099019800F0A2FBEA
:1001A00005461D4C1D4BE41AA410002C0EDC2846FD
:1001B00000F0E2F8154B53F8253098470135E2E797
:1001C000144B53F8253098470135E3E7013C134BB6
:1001D00053F824309847E8E7BABADECA0000002096
:1001E000501B0020000000206C6E0008541B0020F3
:1001F0007856341232547698541B0020041D002087
:10020000541B0020081D0020780300087803000814
:1002100078030008780300087803000878030008D2
:1002200008B5FFF773FF00BEFEE71EF0040F0CBF1A
:10023000EFF30880EFF309807146414A10472DE93A
:10024000F04182B004468846124B5E6B9F6B9D6AFC
:100250001B6B13F0020F03D00E4BDB6A002B0CDB81
:100260000D4800F0B5F8CDF800803B4632462946EF
:10027000204600F009F900BEFEE74BF6AB6100F046
:100280007DF90028ECD0034B4FF00042DA6202B057
:10029000BDE8F08100ED00E02C17000800BEFEE78D
:1002A0001EF0040F0CBFEFF30880EFF309807146D6
:1002B000244A10472DE9F04182B004468846084B95
:1002C0005E6B9F6B9D6A074800F082F8CDF8008056
:1002D0003B4632462946204600F0D6F800BEFEE7EF
:1002E00000ED00E03C1700081EF0040F0CBFEFF318
:1002F0000880EFF309807146134A10472DE9F04159
:1003000082B004468846084B5E6B9F6B9D6A074827
:1003100000F05EF8CDF800803B4632462946204684
:1003200000F0B2F800BEFEE700ED00E0481700085C
:1003300000BEFEE700BEFEE700BEFEE7704700001D
:100340003F020008B5020008FD02000800BEFEE7FB
:100350006C6E000800000020541B00206C6E00082A
:100360000000000000000000541B0020081D0020B9
:08037000000000000000000085
:10037800FEE7000008B503460C4A12685AB10B4A5A
:100388001068033323F003030344094A934206D851
:10039800064A136008BD054A06491160EFE700F0F8
:1003A80003FD0C2303604FF0FF30F3E7581B0020D8
:1003B800004C0020081D002001230360014B0B6046
:1003C800704700BF040000200FB400B583B004AB31
:1003D80053F8042B01938021064800F017FD0028EC
:1003E80003DD0146034800F037F803B05DF804EB7D
:1003F80004B07047601B00202DE9F04385B0044627
:100408000F4643560BB10E461EE0042528462146EA
:10041800ABBE0446384605B0BDE8F08314F9011BAD
:1004280004AA1A4402F8101C0133AB42F6D304AAFA
:100438001344002203F8102C4FF00408E946404604
:100448004946ABBE8046761B002EE3D03546102EBB
:1004580028BF10250023E8E708B5FFF7CDFF08BD42
:1004680008B500F0FDF8024A024B9A6008BD00BFCB
:100478000000000800ED00E008B500F019F908BD1B
:10048800F8B504460D4617461E462748FFF79CFF59
:1004980021682648FFF798FF61682548FFF794FF11
:1004A800A1682448FFF790FFE1682348FFF78CFF15
:1004B80021692248FFF788FF61692148FFF784FF17
:1004C800A1692048FFF780FFE1691F48FFF77CFF1B
:1004D8001E48FFF779FF29461D48FFF775FF1D4C99
:1004E800E16A1D48FFF770FF216B1C48FFF76CFF9E
:1004F800E16B1B48FFF768FF15F0800F0AD115F470
:10050800004F0CD11748FFF75FFF06991648FFF711
:100518005BFFF8BD39461548FFF756FFEFE7314650
:100528001348FFF751FFEDE71016000820160008E2
:10053800301600084016000850160008601600081B
:10054800701600088016000890160008A01600080B
:10055800AC16000800ED00E0BC160008CC16000838
:10056800DC1600080C17000814170008EC16000821
:10057800FC16000883691A888A4201D00020704757
:100588000268033A012A03D80233836101207047C5
:100598000020704782B00023019300932C4A13680F
:1005A80043F4803313602A4B1B6803F40033009331
:1005B800019B01330193009B1BB9019BB3F5A06F0D
:1005C800F1D1234B1B6813F4003F06D0012300939D
:1005D800009B012B04D002B0704700230093F7E77B
:1005E8001C4B1A6842F010021A601A6822F00302C3
:1005F8001A601A6842F002021A60A3F580535A681A
:100608005A605A685A605A6842F480625A605A6856
:1006180022F47C125A605A6842F4E8125A601A6846
:1006280042F080721A600A4B1B6813F0007FFAD000
:10063800074B5A6822F003025A605A6842F00202D5
:100648005A60034B5B6803F00C03082BF9D1C2E72F
:10065800001002400020024008B5FFF79BFF08BDCC
:1006680008B5104B1A6842F001021A6059680E4A20
:100678000A405A601A6822F0847222F480321A60A2
:100688001A6822F480221A605A6822F4FE025A601C
:100698004FF41F029A60FFF7DFFF044B4FF0006230
:1006A8009A6008BD001002400000FFF800ED00E06D
:1006B8001F4B5B6803F00C03042B15D0082B17D0D5
:1006C8001BB11C4B1C4A1A6002E01A4B1A4A1A60EA
:1006D800174B5B68C3F30313184AD35CDAB21549A6
:1006E8000B68D3400B607047124B134A1A60EFE750
:1006F8000F4A53685268C3F38343023312F4803FAE
:100708000AD00B4A526812F4003F0BD00C4A02FB85
:1007180003F3084A1360DBE7094A02FB03F3054ABF
:100728001360D5E7044A02FB03F3024A1360CFE7DC
:10073800001002401C00002000127A000C0000206B
:1007480000093D0030B4032813D9072808D90B281D
:100758000AD90F2822D8A0F10C03D8B2032309E044
:100768000438C0B2012305E0A0F10803D8B202237F
:1007780000E000230A4A023352F8234080000F2584
:10078800854024EA050442F8234052F8234001FA40
:1007980000F0204342F8230030BC70470023E9E70B
:1007A8000000014010B50B4C23889BB20A4AD15C6B
:1007B800002000F069F9238801339BB22380238845
:1007C8009BB242F2BC12934200D010BD002222809C
:1007D800FBE700BFE21B00205817000810B50B4CC0
:1007E80023889BB20A4AD15C002000F04DF9238887
:1007F80001339BB2238023889BB241F23432934267
:1008080000D010BD00222280FBE700BFE41B0020BF
:100818001439000810B50B4C23889BB20A4AD15CE6
:10082800002000F031F9238801339BB2238023880C
:100838009BB242F2EE12934200D010BD00222280F9
:10084800FBE700BFE01B0020484C000810B50B4C2C
:1008580023889BB20A4AD15C002000F015F923884E
:1008680001339BB2238023889BB241F6CC2293426A
:1008780000D010BD00222280FBE700BFE61B00204D
:100888002000002008B5083810280ED8DFE800F04E
:10089800180D0D0D0E0D0D0D0D0D0D0D0D0D090D78
:1008A80013000A497D2000F035FA08BD08497D206B
:1008B80000F030FAF9E707497D2000F02BFAF4E759
:1008C80005497D2000F026FAEFE700BFAD070008D4
:1008D800E50700081D0800085508000808B500F0DD
:1008E800B7F90221084600F0BDF90321022000F003
:1008F800B9F90021022000F0B5F901210020FFF725
:1009080021FF04220021012000F040F802220021EA
:10091800084600F03BF802220121002000F036F8DA
:1009280002221146002000F031F8022203210020A3
:1009380000F02CF802220421002000F027F80222FF
:100948000521002000F022F802220621002000F0F4
:100958001DF802220721002000F018F8094900209C
:1009680000F0BAF8002000F0ADF800F0A3F800F0AD
:1009780051F9062000F056F900F09AF9024800F003
:1009880043F9FEE7C10B00088D08000810B40128E0
:1009980027D018B1022847D010BC7047072912D9B0
:1009A8000F29F9D8A1F10804E4B2314B1968A40061
:1009B8000F20A04021EA00011960186802FA04F12A
:1009C80001431960E8E72B4B186889000F248C4015
:1009D80020EA04001860186802FA01F1014319605E
:1009E800DAE7072912D90F29D6D8A1F10800C0B231
:1009F800214B196880000F24844021EA0401196002
:100A08001C6802FA00F121431960C5E71B4B1868FE
:100A180089000F248C4020EA04001860186802FA44
:100A280001F101431960B7E7072912D90F29B3D893
:100A3800A1F10803DBB2124801689B000F249C4017
:100A480021EA04010160046802FA03F1214301600C
:100A5800A2E70C4B186889000F248C4020EA040098
:100A68001860186802FA01F10143196094E700BFA1
:100A78000408014000080140040C0140000C01403A
:100A88000410014000100140012806D010B10228CE
:100A980006D07047044B19607047044B19607047C3
:100AA800034B1960704700BF0C0801400C0C014053
:100AB8000C100140024AD36843F00103D360704729
:100AC8000004014003490B68012202FA00F00343C5
:100AD8000B60704700040140014B43F82010704739
:100AE800C41C002008B5044B1B689847034A536987
:100AF80043F00103536108BDC41C002000040140F9
:100B080008B5044B5B689847034A536943F00203EE
:100B1800536108BDC41C00200004014008B5214BE6
:100B280000221A70204B1A6842F20F739A4230D989
:100B38001D4B1A6843F2B0639A422AD8002309E091
:100B4800012202FA01F11748027822EA0102027032
:100B58000133DBB2072B17D8194603F11100124AEB
:100B680052F82020B2F5FA6FEAD30F4A52F8200063
:100B780040F6FC029042E3D801229A4009480178E5
:100B88001143C9B20170E3E7064B1878074B1B689D
:100B980098470023064A1370034A1360054A1370E6
:100BA80008BD00BFB01C0020E81B0020001D00206D
:100BB800B21C0020B11C002038B50E4B1B7883B145
:100BC8000D4C2578EDB200F0C7F80C4B43F8250022
:100BD8000B490C4800F07CF823780133DBB2237012
:100BE80038BD0749074800F073F8024B01221A7014
:100BF800F6E700BFB21C0020B11C0020E81B002053
:100C0800250B000820A10700014B1860704700BFA2
:100C1800001D0020014B024A1A6070470CED00E0ED
:100C28000003FA051F2809D93B2806D82038C0B286
:100C3800012303FA00F0044B18607047012303FAFC
:100C480000F0024B1860704704E100E000E100E0AA
:100C5800034B4FF480321A60043301221A60704744
:100C6800001002401F291CD801280BD010B10228FF
:100C780010D070470B480368012202FA01F11943AA
:100C88000160704708480368012202FA01F119431C
:100C98000160704705480368012202FA01F119430F
:100CA80001607047141002401C10024018100240E6
:100CB800064B1A6822F001021A601A6822F0040230
:100CC8001A601A6842F001021A60704710E000E0EA
:100CD80010B40C4B1A6822F001021A6000240A4A68
:100CE8001460043A10601A6842F001021A60074A58
:100CF8001160074A14701A6842F002021A6010BCA8
:100D0800704700BF10E000E018E000E0B41C0020CD
:100D1800B31C002010B40C4B1A6822F001021A60B0
:100D28000A4A00241460043A10601A6842F001026A
:100D38001A60074A1160074A012111701A6842F0C7
:100D480002021A6010BC704710E000E018E000E0F2
:100D5800B41C0020B31C0020024B186804331B6825
:100D6800C01A704714E000E008B50B4B1B786BB94C
:100D78000A4B1A6822F002021A601A6822F001026D
:100D88001A600023064A136004321360054B1B687F
:100D98009847024B1B6808BDB31C002010E000E018
:100DA80014E000E0B41C0020014B1868704700BF35
:100DB800EC1A002030B5141E05469BB0184605DA1B
:100DC8008B234FF0FF302B601BB030BD4FF4027304
:100DD800ADF80C300CBF234604F1FF3302930593A2
:100DE8004FF6FF7300910491ADF80E3002461E9B3A
:100DF8006946284600F072F8431CBCBF8B232B6061
:100E0800002CE1D00022009B1A70DDE707B50093A3
:100E180013460A46014603480068FFF7CBFF03B0B4
:100E28005DF804FBEC1A00202DE9F0478E68824635
:100E38009E420C469046994637D88A8912F4906F9C
:100E480031D00223256809696F1A656905EB4505E4
:100E580095FBF3F509F101033B449D4238BF1D465C
:100E6800530530D5294600F035FB064650B90C230A
:100E78004FF0FF30CAF80030A38943F04003A38144
:100E8800BDE8F0873A46216900F0B4FAA38923F453
:100E9800906343F08003A38126613E4426604E465A
:100EA8006561ED1BA5604E4500D94E463246414668
:100EB800206800F0AAFAA36800209B1BA36023689F
:100EC8001E442660DCE72A4600F05EFB0646002842
:100ED800E2D12169504600F0B1FAC8E72DE9F04F98
:100EE8009DB003938B8980461D060C4616460FD588
:100EF8000B696BB9402100F0EDFA2060206128B938
:100F08000C23C8F800304FF0FF30C7E0402363617E
:100F18000023099320238DF8293030234FF0010B4B
:100F28008DF82A3037463D4615F8013B0BB1252B85
:100F38003ED1B7EB060A0BD053463246214640460F
:100F4800FFF772FF013000F0A480099B5344099316
:100F58003B78002B00F09D8000234FF0FF32CDE955
:100F68000523049307938DF853301A932F460522CF
:100F780017F8011B4F4800F02FFA049BD0B9D90687
:100F880044BF20228DF853201A0744BF2B228DF826
:100F980053202A782A2A15D02F4600200A25079A96
:100FA800394611F8013B303B092B4DD9B8B10FE058
:100FB8002F46B8E73F4A3D46801A0BFA00F018431F
:100FC8000490D3E7039A111D12680391002A01DBEC
:100FD800079204E0524243F00203079204933B78DD
:100FE8002E2B0CD17B782A2B33D1039B02371A1D69
:100FF8001B680392002BB8BF4FF0FF3305932E4DAB
:1010080003223978284600F0E7F938B14023401B1D
:1010180003FA00F0049B013703430493397806224E
:1010280026487E1C8DF8281000F0D6F9002838D004
:10103800234B13BB039B073323F0070308330393A6
:10104800099B4B4409936DE705FB023201200F46CB
:10105800A6E700230A25194601370593384610F8F4
:10106800012B303A092A03D9002BC8D00591C6E7CD
:1010780005FB012101230746F0E703AB0093224655
:10108800104B04A94046AFF30080B0F1FF3F814602
:10109800D6D1A3895B063FF536AF09981DB0BDE8E8
:1010A800F08F03AB00932246064B04A9404600F09C
:1010B80081F8EAE7366E00083C6E0008406E0008CA
:1010C80000000000310E00082DE9F04791461F4648
:1010D8008A680B6906469342B8BF1346C9F80030C0
:1010E80091F843200C46DDF8208012B10133C9F88D
:1010F80000302368990642BFD9F800300233C9F896
:101108000030256815F0060507D104F1190AE368CF
:10111800D9F800209B1AAB4229DC94F843302268A6
:10112800003318BF012392062ED404F14302394636
:101138003046C047013021D02368E56803F0060334
:10114800042B18BF0025D9F800204FF0000908BF6C
:10115800AD1AA368226908BF25EAE5759342C4BFA2
:101168009B1AED181A344D451AD1002008E00123C6
:10117800524639463046C047013003D14FF0FF3060
:10118800BDE8F0870135C2E73020E11881F8430057
:101198005A1C94F845102244023382F84310C4E7DD
:1011A8000123224639463046C0470130E6D009F1CE
:1011B8000109D8E72DE9F04301F1430C0C46097EFB
:1011C80085B06E291746064698460C9A00F0B380FB
:1011D80022D8632936D00AD8002900F0B9805829C6
:1011E80000F0838004F1420584F8421032E064295B
:1011F80001D06929F6D120681368050603F10401B6
:101208002AD51B681160002B03DA2D225B4284F873
:1012180043206F480A2239E0732900F09D8008D8DE
:101228006F2920D07029DDD1236843F02003236083
:1012380003E0752917D07829D4D17823654884F834
:10124800453055E0136804F14205191D1B6811600B
:1012580084F8423001238CE01B6810F0400F1160C5
:1012680018BF1BB2CFE713682568181D1060280641
:1012780001D51B6802E06806FBD51B886F2914BFDF
:101288000A2208225248002184F843106568002D7C
:10129800A560C0F29580216821F004012160002B2F
:1012A8003DD1002D40F08E806546082A0BD1236879
:1012B800DB0708D5236962689A42DEBF302305F848
:1012C800013C05F1FF35ACEB05032361CDF8008047
:1012D8003B4603AA21463046FFF7F6FE01304DD1C2
:1012E8004FF0FF3005B0BDE8F083394884F8451069
:1012F800136821681D1D1B6815600A060BD5CA07EF
:1013080044BF41F0200121601BB9226822F020026D
:1013180022601022B7E74D0648BF9BB2EFE765464B
:10132800B3FBF2F102FB1133C35C05F8013D0B4638
:101338000029F5D1B9E713682568181D616910609F
:1013480028061B6801D5196002E06A06FBD51980DA
:10135800002365462361B9E71368191D11601D68EC
:1013680062680021284600F037F808B1401B606029
:1013780063682361002384F84330A7E723692A467A
:1013880039463046C0470130AAD023689B0713D49A
:10139800E068039B9842B8BF1846A3E701234A4672
:1013A80039463046C04701309AD00135E368039A80
:1013B8009B1AAB42F2DCEBE7002504F11909F5E7CB
:1013C800002BACD1037804F1420584F842306CE775
:1013D800476E0008586E000810B5C9B20244904222
:1013E800034601D1002303E01C7801308C42F6D17A
:1013F800184610BD10B5431E0A44914200D110BDD5
:1014080011F8014B03F8014FF7E7884210B501EBDB
:10141800020307D8421E99420AD011F8014B02F87C
:10142800014FF8E78342F5D98118D21AD34200D187
:1014380010BD13F8014D01F8014DF7E738B5054621
:10144800002943D051F8043C0C1F002BB8BFE41806
:1014580000F0D0F81E4A1368104633B96360146070
:101468002846BDE8384000F0C6B8A3420BD9216829
:101478006218934201BF1A685B6852182260636061
:101488000460EDE713465A680AB1A242FAD919680E
:101498005818A0420BD1206801445818824219609C
:1014A800DED110685268014419605A60D8E702D941
:1014B8000C232B60D4E7206821188A4201BF1168E9
:1014C80052680918216062605C60C9E738BD00BFD6
:1014D800B81C002070B5CD1C25F0030508350C2D6F
:1014E80038BF0C25002D064601DBA94203D90C2381
:1014F8003360002070BD00F07DF8214A1468214651
:1015080091B9204C23681BB9304600F063F820607D
:101518002946304600F05EF8431C24D10C2330469F
:10152800336000F068F8E4E70B685B1B18D40B2BFA
:101538000FD90B60CC18CD50304600F05CF804F1A0
:101548000B00231D20F00700C31AD3D05A42E250E3
:10155800D0E74B688C4216BF636013600C46EBE71C
:101568000C464968CCE7C41C24F00304A04205D00B
:10157800211A304600F02EF80130CFD02560DBE785
:10158800B81C0020BC1C0020F8B5074614460E46BF
:1015980021B9BDE8F8401146FFF79CBF22B9FFF713
:1015A8004DFF25462846F8BD00F026F8A0420FD288
:1015B80021463846FFF78EFF05460028F2D031460F
:1015C8002246FFF717FF31463846FFF737FFE9E7AE
:1015D8003546E7E738B50023054C0546084623603D
:1015E800FEF7C8FE431C02D1236803B12B6038BD47
:1015F800C01C00207047704751F8043C181F002B8E
:10160800BCBF0B58C0187047537461636B20667277
:10161800616D653A0A000000205230203D202025E7
:101628003038580A00000000205231203D20202583
:101638003038580A00000000205232203D20202572
:101648003038580A00000000205233203D20202561
:101658003038580A0000000020523132203D202541
:101668003038580A00000000204C52203D20202528
:101678003038580A00000000205043203D20202523
:101688003038580A0000000020505352203D2025D1
:101698003038580A000000004653522F4641523A4B
:1016A8000A0000002043465352203D2020253038B0
:1016B800580A00002048465352203D202025303843
:1016C800580A00002044465352203D202025303837
:1016D800580A00002041465352203D20202530382A
:1016E800580A0000204D4D464152203D20253038F3
:1016F800580A00002042464152203D20202530381B
:10170800580A00004D6973630A000000204C522FEC
:101718004558435F52455455524E3D202530385860
:101728000A0000005B486172644661756C745D0A6A
:10173800000000005B4275734661756C745D0A00B9
:101748005B55736167654661756C745D0A000000DE
:101758007F7F7F7F7F7F807F7F7F7F7F808080808C
:101768008080807F7F7F7F7F7F7F7F7F7F7F7F7F7E
:101778007F8080807F807F7F7F8080808080808066
:10178800808080807F7F7F7F7F7F7F7F7F7F7F7F5D
:10179800807F7F7F7F808080808080808080808045
:1017A80080808080807F7F7F7F7F7F808080808037
:1017B8007F7F7F7F7F7F7F7F7F7F7F7F7F7F80802F
:1017C80080807F7F808080807F7F7F807F7F7F7F1A
:1017D8007F7F7F7F7F7F7F7F7F7F7F7F7F7F7F7F11
:1017E8007F7F7F7F7F7F808080808080807F7F7FFA
:1017F8007F7F7F7F7F7F80808080808080807F7FE9
:101808008080807F7F7F7F7F7F7F808080808080D7
:1018180080808080807F7F7F7F7F7F7F7F7F7F7FCB
:101828007F7F8080808080808080808080808080B2
:1018380080808080807F7F7F7F7F7F7F7F7F7F7FAB
:101848007F7F7F807F7F7F7F7F7F7F7F7F7F7F7F9F
:101858007F7F7F8080808080808080808080808083
:1018680080808080808080807F7F7F7F8080808074
:101878007F7F7F7F7F7F7F7F7F7F7F7F808080806C
:10188800807F7F7F7F808080808080808080808054
:1018980080807F7F7F7F7F7F7F7F7F7F7F7F7F7F4E
:1018A8007F7F7F7F7F80808080807F7F7F7F7F7F3B
:1018B8007F7F7F7F7F7F807F7F7F7F7F7F7F7F802E
:1018C80080807F7F7F7F7F7F7F7F80808080808018
:1018D800807F7F7F7F808080807F7F8080807F7F08
:1018E8007F808080807F80807F7F808080807F80F5
:1018F8007F807F7F808080807F7F7F8080807F7EE9
:1019080080807F80807F80807F7F8080807F807FD5
:101918007F7F7F8080807F7F808080807E7F807FC8
:1019280081807E8080807F7E808180807E7F7F7EB8
:1019380081807E7E8081807F7E7D82817D81817EA7
:1019480083807E7F7B81827F807D81837C7F817E97
:10195800817F7F827D80817E827F7D817E7F828183
:10196800817D7D8081837E7D7F7E83807D7F7E817A
:10197800847E7A7F808483797A8084818180797E6D
:1019880085827F807E7E84807D7F7E84827B7B8053
:1019980085807F7D7F7F7B8186827E7D797E878142
:1019A8007B8081857E7A827F81827C807F7C868233
:1019B8007C827C7B827F7E84817E827F7D7F7D822C
:1019C800857D7B8080848278798183808281797D1E
:1019D800848180817C7E85807D7F7C82837B7A8206
:1019E80086827E7C7F807B808683807E7A7C8681EF
:1019F80079808283827B7F807F827D7F7E7C8781E6
:101A08007B847F797E7A808D837D7F7D7E7C7C85DB
:101A1800877D7B7F81817F7D7B85827885858082BC
:101A28007A7B7A7B8785818082807B7B7C7C8689B8
:101A38007F807D777C828586807E7C797B808787A6
:101A4800857E727C847B85827E887C7A817C838299
:101A58007C807C80847E80818281777C827D868682
:101A68007C817E7B7E7D85857D7F7F7E7E7F828576
:101A7800807B7A7F807D87848385767C7D7889806A
:101A88007C877D81807A827E7C837F817C7A87884F
:101A98008580797B7980868383796F747D868C874E
:101AA80084817B7878808785857F7983898980752B
:101AB80081897B6769727588928A9187757C737250
:101AC80086848990818189838476718687746A7017
:101AD800737A8C8F8C8F7E757A6F7888848E8D80E0
:101AE800858785817276857E706D7277818F8D8D01
:101AF8008C777679707E868791867F8584898579CB
:101B08007E7E726B6A75868B888A85817C75777C08
:101B18007E848A8D8A817E8386877F7C82786C67C3
:101B28006C7F8B8C8C87807F77757F807F8385899E
:101B380087838182827D7B858D7E656273818B8CB4
:101B4800878A867C79777C7F7D8287888682818276
:101B5800807C7E8C8F76606675848B888C8D807790
:101B680076777D7D818888878785837A75757F9666
:101B7800977A5C6276818A89889386757B75757E8B
:101B88007C848A868988827C767383968E71606E5F
:101B98007C828A858A8F7B787B747E807D8B888225
:101BA8008883807D737489988D6D5B707F888F833F
:101BB800888F77767A7481807C8A85828883837D12
:101BC80071768B9A8F6959707B838F89929375711F
:101BD800756E8085848E827B847D7B8286989D81CC
:101BE800605162737C90A0A69D796A696175858948
:101BF800948A80857A757E82969E82635564757E06
:101C080090A0A498786C686274848C948A81847893
:101C1800737D8499A083605364767E8F9EA699789D
:101C28006D696174838A948B83867A737C81969FAD
:101C380083615464757E8F9FA699776D69617384FB
:101C48008B948A82877A727B83989D7F62576574AA
:101C58007E90A1A595766D6B6373848D958A7F843C
:101C68007B747D84999E7F5F5564727D93A4A89749
:101C7800756D6A6170818D978D828479727A81968B
:101C88009F83635866717A8EA0A798786F6D636F8B
:101C9800808B968E82847A717982959E846158674A
:101CA800737C8E9DA69A796D6A6271818B978F85F8
:101CB80085786E7581969E87665A6771788B9AA328
:101CC8009C7F736E636F7E87948F86887B70768027
:101CD800959C8466596672788B9DA49C80746E600E
:101CE800697B8795928A8A7C6F737D929B876B5EEE
:101CF800686F748798A39F837872616977839492D9
:101D08008B8D7F6F757D8F99846A5F6870768898F0
:101D1800A29F8477736267768193938D8E817274A4
:101D28007A8C99866C6169717383949F9F877A779F
:101D38006668757F90928A8D8274767C8D98856BA3
:101D48005F686F738496A1A0887C786566737D8EC2
:101D5800908B908575767D91987F655E6B727483A4
:101D680096A4A0877C766666707C8F918C8F84762B
:101D7800767D90977E645D6B72748597A49F867B51
:101D8800776767707C8C908E908677777B8994864E
:101D98006E636A71707F90999D8D82806B66707892
:101DA800888D8B90877A7A7E8C96846B5F67717347
:101DB80081939A9E8E82816C666E73858C89928CD3
:101DC8007C7C7F8E9780665C6974747F8E999E8D0B
:101DD8008283726A6D728389858D8E817C7B8898F7
:101DE8008C705D6272727888949E9383867C6E7024
:101DF8006F7A8581888F87848487918B7462626CFF
:101E0800707684909A96888B8473706C73817F84C3
:101E1800908B86858492947D665D6770737F8C97BE
:101E28009A8D8C8976716E6D7B7B7E8F8C87888688
:101E380094967D675E656E6E7A8A949A918F8D7A94
:101E4800726D6A767980908D8A8C8F988E715D5AC2
:101E5800656D7383929C9B8D8D8978716A6B77779A
:101E6800808D8A898A8F9C9279665F65666B7E8D84
:101E7800989890928A7B746A6B7177868C8B8E9413
:101E88009D977D655A5E6267788E9EA1948E8B7E43
:101E9800756F6C73757A868685898F9C98816F6754
:101EA8006865616F849499919190837C726D727367
:101EB8007B8583878E97A192776761636266788D49
:101EC8009C9C92908A7E776E6E75767F8782858BD2
:101ED800939F92796B65666466778A98988F918BE1
:101EE800807B717176747D847F838995A08F796FEB
:101EF8006B686163758B97938F918A827B74767513
:101F0800747E8281858E9B9B846F6C6D68636A7E0C
:101F1800949890908D867F75737672778183848884
:101F2800939F967C6B6C6C64626D84989791928D8C
:101F3800847B727173737C8584858A979F8D736A9D
:101F48006D6B6364748B9A9590908A8277707474C1
:101F580077828584858B9998826F6D726C656979B3
:101F68008D938E908F898377747573798283848635
:101F7800919B927B6D6F7069666D7F91908F928D4A
:101F88008880757573737E8383858B999883716F49
:101F9800736D6468788B8F8B91928C837875726F70
:101FA800788185898F9D9D8771696D6B6265788D54
:101FB800948D8E928F8578737471757D83888B95D7
:101FC8009C8F796D6E6F69656F838F8E8B8E908C09
:101FD8008077767573797E83878C989886736D7011
:101FE800706969788A908A898C8D877C7775727513
:101FF8007B7F858C999E8D776E70706864718590F3
:102008008C8C90908A7E76757071787D86909CA075
:102018008F786E6E6C65616F87928F8E9090897CD9
:1020280076757374767A838D9BA0917B70706F67D9
:10203800616C818F8F8D8F908B7F787876757779AB
:102048007F86949E96837471716C636779898E8D8F
:102058008E8F8B837B79777577787E86949E97832E
:102068007472716C646778878B8C8F908D847A7AA0
:10207800777476767D87939F98847673716B6367A0
:1020880078888C8D90908E867B7A767477767B8430
:10209800919D97857876766D6465758588878C902F
:1020A800918A7E7C7974757479828F9C998778750A
:1020B800756E6565748589888B8F918B807C787542
:1020C80075767A838F9B9887787677716865718340
:1020D80088888A8D918C817D7A767675787F8A98C2
:1020E8009A8C7C7778746A656D7E86878A8D918EE6
:1020F800847F7B767675777E8A9899897B777874E2
:102108006A6670808584878B908D84807D777675EC
:10211800767D8897998B7C797A756B656F7E8382DB
:10212800868B918E84817E797672757F8C9A988859
:102138007A787A74696571818582868C908C8380BF
:102148007F7B7773767E8B9897887B797A756A66BA
:10215800707F8382878D928C83807E79757176807B
:102168008F9B958579797A74696673818382868D68
:10217800928C82807D7B787377808E9993847A7A2B
:102188007A74696774808282868E938C817F7D7B66
:1021980077737782919991817A7B7A726868768071
:1021A8008182878E928B83807D79747178869599E8
:1021B8008D7E7B7D796F666B7A818183889091882B
:1021C800827E7B7A75737A8A9A998778787B776D1D
:1021D80067717F828183888F8D84807D7B7B757515
:1021E8007E8E9A9381777B7C756B6A7882807E82FB
:1021F800888E8982817E7D7A747782949F917B73A1
:1022080079797063687E8B8986878E8E82797877F4
:102218007C7B787C869AA28F787177786D626A81E8
:102228008C88878B918E7E73717076797A8697AE5B
:10223800B2936F5C5B5958637D9FAEA1958C817595
:10224800625C6873828A888E99ACAC8B68585C5DD6
:102258005A6781A3B0A0948B7E705956677589958B
:1022680093979DACA77D55474F5C677995B2B9A107
:102278008C7D6E6152597181949B939295A4A27A38
:10228800564A55646A7994B2B99F8A7C6D5E4E57F6
:1022980072859AA098979BA99966413C5269778C58
:1022A800AAC3BB957D6A5A4F4B658394A39E9493AA
:1022B8009AA2875A434A61717B91AFC2AD8975640E
:1022C800584D527691A0A6968E8E9B9B71463C5394
:1022D80072818AA1BDBD9775625755546B8B9AA5BB
:1022E8009F8D8687988F66484C677B808BA5BDAF8E
:1022F800876C5B55565E7F9BA5A89580787F9587F0
:10230800604A597A84848EA7B99D7563595B606D5C
:102318008B9DA2A18D7A737F9689644E5D7B8181A6
:102328008CA3B59C78695D5D606C8A9DA1A08C7951
:10233800717E978A6751607C7E808FA6B5946F65A1
:102348005C5E677594A19D9983716E819D8D6752BE
:10235800637F7B7C8CA6B3916F6960636974949E7C
:102368009B9880706C82A2916A52627C777A8CA763
:10237800B491716C62646974939995937D73768E48
:10238800A78D624F627874798FAEB690706A626377
:102398006775959B96917B72758EA88E654F617651
:1023A800727991AEB58E716D6365687493989491E6
:1023B8007A747A95AB8A5E4B6074717B94B3B78DEF
:1023C800706B61636675939997917B737895AA8B07
:1023D8005F4B62746F7993B4B68D736E6362667780
:1023E800929593907D757A97AD8C5D485E73707BFE
:1023F80096B5B78E726C605E6477929694927F758C
:102408007996AC8C5E4A5D706D7B97B6B88F756EA9
:10241800605C62769294939381797B96AA895C48F2
:102428005C71707B96B8BD92736B605D61729197B9
:10243800939685797485A8996C4F566F6E738DAE97
:10244800BF9D7871635C626E8B969196897A75826E
:10245800A49C704F536E727289AABCA27A6F695C91
:102468005E6B879994958E7E757799A3805A4D688F
:10247800737081A1B9AC85726C5E5B678298959523
:102488009280767391A889634D5E726C7C9DB6B319
:102498008B74715E59647B9695939582787991A730
:1024A800885E495B71707E9EB7B68E716E5F5963A8
:1024B800779497919583787686A8966D4E516E6E2F
:1024C8007595B0BB9D746F655961708C9B92968AA7
:1024D80076747B9DA37C584E67707188A8BBAA80D0
:1024E8006F695A5D6B859A95928F7D76738AA793EB
:1024F8006E4E576E6C7995AEB89876726458647261
:10250800909D91938675727599A788624D636D6DDC
:10251800859FB4AF88746F5A5A6B7E97969196854B
:10252800737083A299734F536E6F798FA6B9A47D88
:102538007166565F71879A989392806E6C7FA09DA2
:10254800785559706D778CA4B8A078706658647304
:10255800899D9894917C6C6E809B97745761746E7A
:10256800778EA7B79B746F655B66738C9F99958E02
:10257800786A6B7F9C98785B62736D778FA6B49648
:102588007273675A68768F9D96949077666C7F9E73
:102598009A755A63736E768EA8B3947473665B6883
:1025A800798F9A94938E76666E839D98785D63741E
:1025B8006E758BA3B09675746B5F68798F9B948FDB
:1025C8008C78686E7D999E81655D6C6F70859CAB1B
:1025D800A27F76726264728798958A8A826E6C7717
:1025E8008FA6926F5C666E6C7A92A5A78C7A7B6CCC
:1025F800636A7A8E928D8F8C7A6A6C7F9E9F8063D5
:1026080061716B6E8497A7A085827865646B7F90F3
:102618008B8E958C76656883A29F8365656E656AE7
:102628008195A9A18B88715F666F7F888C96958646
:10263800736A74899C987E61616963738A9BB1A58A
:102648008A82675B646B818E909A948571647289C3
:102658009E997D62636B6371889CB1A68A7C665D76
:10266800666A7E91989C9080746A7280969E866352
:102678005E65657A8796AFA38E83695D61697E9092
:10268800959A9282746D727C949C8669626764776D
:102698008592ABA291876D6062687C8C939D9584CE
:1026A80075686C79909F947665665E697F89A3AD3D
:1026B8009B8D726160647889919C998A7D69656E49
:1026C80086A59F7F6362656175869AB4A88E7A62D3
:1026D8005E676E828F969C8D8174646B7696AC95DE
:1026E800715B6766687F89A3B096827666676C724D
:1026F80084919897877E71696E7396AB94715E65C5
:1027080069707884A2B29B837666656772878F98B2
:10271800978A7E6E676F7696AB97775D60656D7802
:1027280082A3B69F827165696D7385909B95837A44
:102738006E696A7195AFA37D5B616469747C9EB8AC
:10274800A0887B6C6D6B697E8F9492857C7D7267A7
:102758006E80A4AD946A5968676B7282A9B194853A
:102768007A6E716A70858C908D8680776E666F89B7
:10277800A7A98B67636E6462728BB1B08F867B701A
:1027880068616D828E94938C81766C656E86A6AC3A
:102798008D695E6962617592B7B28F877B69635C88
:1027A800718B919591897C6F6A697483A1B5986AD8
:1027B80058646460728BADBD9E877E6A625D658376
:1027C8008D8D928F8C7C6E6D6C77859CAE936B5CD7
:1027D800666460758FB0B99E8B7D65585869838D26
:1027E800969F9586756C68657183A5B59B725A65C9
:1027F8005D59748FB3C0A089786257516588959CDC
:10280800A0958A756265626C8193B7B38A65585DD5
:10281800556487A3BCB090836A5652607F93999F92
:102828009A8777686467667F8EA3BEA277554F5CE8
:10283800617893A7BBA8867460585B6784999B9E50
:10284800968577635E6A7081909DB6A77E574D5DC9
:10285800607291A4B9AE847462545E688799979E39
:1028680093867563666877828698A2A79370555198
:10287800616A8398A0B1A380765D54676E899F9B37
:102888009F91796D5E636C798C8D99A0A39875552D
:102898004A57647D9BA3B1AB847462556975859D65
:1028A80098988B6F69626B7A809495928E849188E0
:1028B8006B4C57737C8D949CB09678745E6472737D
:1028C8008F978C9380706E687782889486848680D0
:1028D800968E7358556F7B85909EB59E796E5F6412
:1028E8006B6E8A9896987F73786A777F78868784E4
:1028F8008A8294A58462465A77758E9EA7B690718F
:102908006A565F6A72939E999C8A756F6267777B35
:102918008997908C84869B8A634653797F889DA388
:10292800B19C6F6B605B6D6F899D93998D7B786DA2
:102938006F757882888A848083929D85644F6676D5
:1029480072899AA4AE8F787A625C6464879B93A13B
:102958009686816A66676A80858D93888B93998746
:1029680062475973738B9EA3B49D77705B56686BEF
:10297800829F9C9F977F786C62686E828F8D968904
:1029880083868B8D7559526E7D81979FA4A4806C28
:102998006C5B61727D979C939A8B776F6366737992
:1029A800899091968181858284725E5F7680839119
:1029B800929FA0807870606A6F768C9293988F84CB
:1029C8007768686A6E7F8E93998F7F807A8083712B
:1029D80062687A7F8593969B987F776D5C67737F33
:1029E80096999B9783746762696F7D8F999C928390
:1029F8007574707B8A8675677E8076828494A188D8
:102A08007E7F6B6A707088928B968E80776767700E
:102A180074838F999B897A7373717B8B8C76687DAD
:102A2800807A8484909D837C7F6F6F71738B928A88
:102A38008D87797770747779888C8D8F817C7A6BA4
:102A48006F7C94A1866873796E767C8DA39589884E
:102A5800766B6664798C8C9596897E736B717277C8
:102A6800898E918F818079696C78939E846E787E47
:102A78006E727E8D9E92818A7F6C6661798E8A9451
:102A8800968B8A766A6B6876858F97908784786547
:102A980069738AA1958374756F62738692A1958B09
:102AA8008B7566625F7A8D8C98998D8977676C6C67
:102AB80076818993948A7E7B6B6B707EA19F8A70E6
:102AC8006B76656B838EA39D8B8C7862655E6E8D4D
:102AD8008B99A3928A786165676F838E96988E8AA0
:102AE8007E6A6367798A9CA392726F695B72818937
:102AF800A9A28A907360685C6F8E8A9BA58D857584
:102B080063686B75868E98938886786864687F8F0B
:102B18009BA699766564576A8289A5AD918D7C617B
:102B2800676165858A90A0948A816C68686C828CDC
:102B380090958A888269696B778C8DA1A583646179
:102B48006366768399AE9F89856F646563788389A8
:102B58009798938879706D6C6E7C8E8F918D858532
:102B68006F656E75878B9BA5906E5B63676B8291B3
:102B7800A5AB90857A6563636B838B96A093867A01
:102B8800686A6D71818E94948E827E6F606E768194
:102B98008F8FA7A480635968686E8A969FA58883DB
:102BA8007F60656E6E858D8A99928382726A746F72
:102BB800778E8D908E8083756574787D898BA19FC3
:102BC8007F6561706A6B88949FA4857F7E68696F52
:102BD8006F858B8795918280746D77747C89878DDA
:102BE8008B8384776E75777882869EA48771636DF0
:102BF8006E657B8F94A394888B6F636F67738584EE
:102C0800959A8A877F70706F728385878E8D8B7C8B
:102C18006D7174707C86A1AB8F76656A665B769001
:102C280097A7998D93715A655C6E88859AA5928E3F
:102C3800836B6866667C888C969690836F696C6EE9
:102C48007780909CA29C856B5A5E5F678497A4AC42
:102C58009A8D846A56585E758C929EA3948A7D6A72
:102C68006464697C8B9196918D80726D6B707A82A9
:102C780090969E9C85685862636B8695A1AB9988EF
:102C88008369595D62778A8F9DA29488806E636498
:102C9800687A8C9094928F81736D6F6F737E8A942B
:102CA800999D957E5F596064748A96A8AA938B7ED5
:102CB800645A5B61788B939FA395897D6A62646887
:102CC8007C8B9095979384746A686A707B8F989EC2
:102CD800A4977D5E535C60728A97ADB0998D7E5FD4
:102CE80052555E788E98A6A9998977645C5E687C4F
:102CF8008F989A9D927E6E63646A7282929C9DA060
:102D080097805D4C5D626F8D9BA7B09A857E6551FB
:102D18005A637490989EA69A8579695E636A798BDE
:102D280094979A94817269676A6E7D8B979A9C9C36
:102D38008B6D525A656680949CAFA48A86745656E9
:102D48005F6D889597A39E8880705F62687488938A
:102D580095989988756A64666D7889999D999C9209
:102D68007557536466779198A7A98D867E625961D5
:102D7800697E9192979C8E817B6D676C727F8D8F37
:102D88008E908E7E726B6C74757E8C959591938DFA
:102D980076595C6C6A7B8F92A3A48B877F645D6491
:102DA8006A7A8B8D959C90888271686C6D79888918
:102DB8008B95908077727170707D8A9394909790BC
:102DC8007357626C687B8C92A5A0898C816561655C
:102DD800697A888B969A8E8982706C6C6D7B8687EF
:102DE8008D958C7E7773726F727F8D939093978891
:102DF80069586A6D6C808B97A696878A796566672D
:102E08006D7E878C96948B897E706F6E737E8386B9
:102E18008D91867D7977757176828A8E8C91988767
:102E2800676071696B7F8894A1938C8F7A6A6A68EE
:102E38006A7A828993938D8D8374727070797F8298
:102E48008C93867F7D7975717680878B8992988738
:102E58006963746B6A7D88929F928B8F7D6B6C6AB5
:102E68006A78828991938D8F8475747471797C7E68
:102E7800898F847F827E797578808485888C958A0D
:102E8800716475746878888A9597888E87716D7172
:102E98006A727D82878F8C8C8C7F777875727A7B4B
:102EA8007F8A8A8083827D7975798282858B9193E6
:102EB800836B6A796B697F898B99928C90806E6F2E
:102EC8006D6A7780858A8F8C8D867A797A75777D19
:102ED8007D8289807C82807B797D82858487888ECB
:102EE80089756974796B7487888C978C8B8A7A6FEB
:102EF80073706F7A8184888B8C8B817C7B7A777AEC
:102F08007C7D83867F7F817E78797F838488898AA8
:102F180091836F6975706A7C8A8A93968B8B8375A7
:102F28006F7371747F8485898989857E7D7C7C7CBB
:102F38007C7C7F8481797B7E7C7B818788898A857C
:102F48008A877366717A6B75898B8A958E88887C77
:102F580072737471787F838388888884807F7F7E8A
:102F68007C7C7A7C817C787E807F7F84878787875A
:102F78008389867567717B6E75888A8A958D878740
:102F88007D717374707A8083838888878480807F5A
:102F98007F7E7E7A7E7F78767E807C82878788892E
:102FA80087828587786C6C7A7670818C888F918718
:102FB8008A8576747872737A808082888989858414
:102FC80082827D7B78787D77747C838082888A8909
:102FD80088868181867D6E69777B6F7B8C8B8B92EF
:102FE800898788797279766F777F7F7E858A8A88E4
:102FF800868584817B7875777771777F83848A8EDD
:103008008C8A85817C857F706A747D7377888B88CC
:10301800908C86888078797A72737B7E7B818888A9
:103028008B8B8A87847D7774727574737C848686AB
:103038008D8E8A86837E7D857B6D6A7A7C717C8A9B
:10304800898A918889887E7678746E747C7D7E8979
:103058008B8B8C8985847E77777375767578818775
:10306800858A8F8A8784807D7D827C746E7B7F7160
:103078007A8987868E8A8A8A807978746D727A7B53
:103088007D898E8E8C8B88817B7574707476747A4A
:10309800828986898D8A8684817E80847B716D7918
:1030A8007C6E7A8B8888918C8B887D7777736D742A
:1030B8007D7D7D898E8D8A8A88817D79767075750A
:1030C80071788186868A8E8D8986847E8282766CE6
:1030D8006F7C736F8088858C928C8B897E787872F0
:1030E8006C747C7B7D898E8B898B8882807A7473E3
:1030F800767371777F8483898D8D8B8886808282B1
:10310800756B6F7A72707F88868D918B8C897F78CA
:10311800777270757B797E898C89898D8984817CA9
:10312800767575706F777E7F838C8F908D8A878395
:10313800857F726970776E707F86878E908F908A90
:10314800807B78716F7476767F8788888C8E898685
:10315800827C7675736D6F787D7E858E8F8F8E8C71
:103168008685857A6E6973746B748486888F8E8F72
:103178008E877E7C7971717675767F8686888E8E4D
:103188008B87827C76746F6C6F777D80878F919048
:103198008E8C878584786A6A767069778384898F4C
:1031A80090928E87807D7770717474788185878B13
:1031B8008F8E8B85807875736D6D737B7E828A8F19
:1031C800908F8F8B87877D6E6772746A7180848514
:1031D8008C8F91918B83817C736E7273737A8186E5
:1031E800898C8F8F8C857E777671696D767C7B82F2
:1031F8008C918E8F908F8F82726B746D646C7A7DD8
:10320800818B8E9293908A8680766F707170757DAF
:1032180083858A8F908F8B847D79746A6A717677BB
:103228007D888F909092909288776B72716469769E
:103238007C7E888C9193928C87847B737071707379
:10324800798084878C8F8E8B857F79766E6A6F778D
:10325800797B858D908F918F918D7D6E6E7366666B
:10326800727D7D858C9093928D87857D7671727045
:1032780073787D81858A8D908C89837E78706C6D5A
:1032880072747982898F8F91918F8E86796D707221
:103298006869777C7E858A8F918F8B8A867D747426
:1032A800747173797D80868A8E8E8C86807C756E2B
:1032B8006C7275777E868D8E8F918E8E897F7170F8
:1032C800756D68727B7D83878C91918D8A888075F6
:1032D80072747270767E8184898B8D8D88817E7BF5
:1032E800736D6F75767880898E8C8E90938D8075CE
:1032F80075766C6770787A7F838990918D8B8B84D3
:103308007A76767371747B7E81868B8D8D898381C5
:103318007D746E717574767E878B8A8C8F948E829D
:103328007878786E697077797E82878E908C8A8AB1
:10333800847C77787573767B7D8083888B8A888593
:1033480083807772747775747A83898A8A8D949169
:1033580083797B7A716C6E75797D7E838A8E8C8B8E
:103368008A86807C797575777A7B7F82868A89865A
:103378008586817773757774757B848888898E9440
:103388008D7F7A7E7A706D72787B7D7E868C8C8953
:103398008A8A867F7B78777576797C7F828589892A
:1033A800868585807875767675767C838788898F1B
:1033B800938B7E7C7E79716E72787D7D7E868C8A19
:1033C800868888857F7D7A7977787A7C7F818588F9
:1033D800878485857F7775787776777E85888789EE
:1033E8009191867B7D7E766F70757A7C7A7F878CEB
:1033F80088868889857F7C7B7A7777797D808285C6
:1034080088878484837D7878787777797E838686C1
:10341800888F90877E7E7F78717175787C7B7E86B9
:103428008B8886888885807D7B7A7979797D7F818C
:103438008486858484837D79787877777A7F848792
:1034480086888E8F867C7D7F79727276797C7B7D8B
:10345800848A8785878885807D7B7C7A79797D8059
:10346800818284868483817E7B7A7978787A7F8268
:103478008585868A8E8A827D7E7D777273777B7C4E
:103488007C81878986878887827F7D7C7B7A7A7C26
:103498007F808183858483827F7B797877787A7E41
:1034A80082858686888C8B837D7D7D7A7472767A18
:1034B8007C7B7D84888785868785817E7D7D7C7AF7
:1034C8007B7E808181828483817F7D7C7A79787913
:1034D8007D8183848688898988837F7E7B787575DA
:1034E800777A7B7B7E83868685868785827F7E7ECC
:1034F8007C7B7B7E807F80828382807E7D7B7A79E5
:103508007A7B7F8283858888898986827F7E7B779C
:103518007476787A7A7C8084858586878784817FAB
:103528007E7E7C7C7D7F80807F8181807E7C7B7AB3
:103538007A7A7B7D80828384878888878784817D67
:103548007A7877767576797C7E8184858687858496
:1035580083817F7E7E7E7D7E7E7F80818080807F6E
:103568007E7D7C7C7C7D7E8083848485878887853E
:1035780082807D7977767678797A7D80828486876D
:103588008686858382807E7E7E7D7C7D7F7F7F7F31
:1035980080807F7C7B7B7C7B7C7E80838585858629
:1035A800868684827F7E7B7877777879797B7E813F
:1035B800838485878786848281807E7C7C7C7D7EEF
:1035C8007F7F7F80807E7D7D7D7D7D7D7F81828305
:1035D80084858686858381807E7C7A777678797BF8
:1035E8007B7D808485858585858381807F7F7D7DC2
:1035F8007E7F7F7F80807F7E7D7D7C7C7C7C7D7FE5
:10360800818283848585848382817F7D7C7C7C7AAA
:10361800797B7D7E7E7F8183848382838381807FA3
:103628008081807F7F8081807E7E7E7E7D7B7B7CAB
:103638007E7E7F8082848484848482807E7E7D7C7A
:103648007C7C7D7E7E7E7E8080807F7F807F7F7F8A
:103658008081828181828382817F7F7F7F7D7C7C64
:103668007D7D7D7D7E808080818283828080808058
:103678007F7F7F7F80807F7F80807F7E7E7E7E7E53
:103688007E7F7F8081828282828282817F7E7E7E2F
:103698007C7C7D7E7E7F7E7F808080808080808035
:1036A8007F7F8080808080818181807F7F7F7E7D19
:1036B8007C7D7E7E7E7F8082828282838381808001
:1036C800807F7E7E7E7F7F7F7F7F807F7F7F7F8002
:1036D800807F7F7F80818181818181807F7F7F7FE3
:1036E8007D7C7D7D7E7E7F7F8182818182828181DA
:1036F8008080807F7E7F7F7F7F7F7F7F7F7E7E7FD2
:103708007F7F7F80808080818182828281818180A9
:103718007F7E7E7D7D7D7D7D7E7F7F8081828282B2
:10372800818181807F7F7F7F7F7F7F7F807F7E7E9B
:103738007E7E7E7E7E7F7F7F7F8081828181818287
:10374800817F7E7E7E7E7D7C7D7E7F7F7F80828185
:103758008080818181808080818180808081807F5C
:103768007E7F7F7E7D7D7E80808080818282818158
:103778008182817F7F7F7F7E7E7D7E7E7F7F7F7F50
:103788008080807F7F80808080808080807F7F7F36
:103798007F7F7E7E7E7E7E7E7F7F807F808181812F
:1037A800808181818080808080807F7F80807F7F12
:1037B8007F808080808080818080808181808080FF
:1037C8008080807F7F7F7F7F7F7F7F7F80808080FA
:1037D80080807F7F7F807F7F7F7F7F7F7F7F7F7FEE
:1037E8007F7F7F7F7F7F7F7F7F7F7F7F7F7F7F7FE1
:1037F8007F7F7F808080807F7F7F7F7F7F808080CA
:103808007F7F808080808080807F7F7F7F7F7F7FB9
:103818007F7F7F7F7F8080808080808080808080A5
:103828007F7F7F7F7F7F7F7F80807F7F7F7F7F7F9E
:103838007F7F8080807F8080807F7F808080808085
:10384800808080807F80807F7F8080808080808073
:103858008080807F7F7F7F7F808080808080808065
:103868008080807F7F7F7F7F7F7F7F8080807F7F5A
:103878007F7F7F7F7F7F7F80808080807F7F7F7F4B
:103888007F7F7F7F80807F7F7F7F7F7F7F80807F3C
:103898007F7F7F7F7F7F7F808080808080807F7F29
:1038A8007F7F7F7F80808080808080808080808014
:1038B8007F7F7F7F7F7F7F7F7F7F7F808080807F0C
:1038C8007F7F7F7F7F7F7F7F7F7F80808080807FFB
:1038D8007F7F7F7F7F7F80808080807F7F808080E8
:1038E80080808080807F7F7F7F7F7F7F80808080D7
:1038F800807F7F7F7F7F7F8080807F8080808080C7
:103908008080808080808080808080807F7F7F80B2
:103918008080808080807F7F7F7F7F7F7F808080A6
:1039280080808080807F7F7F7F7F80808080808094
:10393800807F7F7F7F7F7F7F7F7F7F7F808080808A
:103948008080807F7F7F7F8080808080807F807F75
:103958007F7F7F7F7F807F7F7F7F80808080808068
:103968007F7F7F7F807F7F7F7F7F7F7F8080807F5B
:103978007F7F808080807F7F7F8080808080807F45
:103988007F7F7F80808080807F7F80807F7F7F7F38
:103998007F808080807F7F7F80807F7F7F7F7F7F29
:1039A8007F808080807F7F7F7F807F80807F7F7F18
:1039B8008080808080807F7F7F808080807F7F7F05
:1039C8007F808180808080807F7E7F7F80807F7FF6
:1039D8007F8081807F7F7E80807F7F7F8080807FE7
:1039E8007F7F7F7F80808080807F807F7F807F7FD8
:1039F800807F80807F80807F807F7F817F7F817EC6
:103A080081807E827F7F817E827F7D817F81817DB3
:103A1800808180817C7E817F817D7D828082827BA6
:103A280082807C807D81837D81817C817E7E817E98
:103A38007F808284817D7D7E80807C818184827B81
:103A48007E7E81817C7C8185837E7F7F807F7D7F78
:103A58007E80817E7F8583817E777B838180818064
:103A680084807C7F7B7B847F7F837F86817B7F7C58
:103A780080807B7F807E828282827B7E7F7E807D4B
:103A8800818581817A7D827E7F7E7E8284817D7C34
:103A98007E80857F7D7E7C85847D7F7E80837C7F24
:103AA8007D80827F837E7D817D81827F827D7D8313
:103AB8007E7F807F83817D7E7C80837E7E7E848303
:103AC80081827A7C807F7F7E8183837F80807A7EFB
:103AD800817E827F7E8381827D7C7F7F82817F7EE3
:103AE8007D7D817F84817B818082827B7E817E7ED9
:103AF8007E818383807E7F7C7D817D7F807F8586BC
:103B0800807C7C7A7E7E7F8583827F7B80837E79C2
:103B18007C8286807D8181807C7F827F827D7E839E
:103B28007E81807C7E7C7E848181827D7E7E7B819D
:103B38008381857C7D827C848179817F81837A8180
:103B48008081807B837F7D837C808380817C7D8472
:103B58007E7D818082827D7E7E80837C7A81878360
:103B68007F7F7C7E7F7F7E7E8182837E7F807C805C
:103B78007E7C828181817E818080807B7E807F8344
:103B8800817F807C82847C7C8083837B7A8485812E
:103B98007F787E81808481807D7B8184807B7B822D
:103BA800857F7F817F7E7E7F807D7E8483827C7916
:103BB80081837F827A7B858183807C817D7D807D06
:103BC8007F848180827E807E7E827D7D7F7D8284EF
:103BD80081807D7D81837C7C8182827A7D878280E1
:103BE8007D7980808083807D7D7F85847C7A7D83DC
:103BF800847D7E827F7F7D7F817F808282807B7CC7
:103C08008280808179808381847C7E807D817C7CB8
:103C18008383828080817E7C7E808181807F808199
:103C2800817D7E8080827D7F817D807F81837E7F94
:103C38008081827D7C7E7D81837F7E8483807B7A88
:103C4800818281817E7E82827F7D807E7D7F7D8173
:103C58008483827C7F807C827D7C837E82847D7E5F
:103C68007D7D817E7F83807F808080817F7E7E7E58
:103C7800817F808380807F7F7F7D7D7E82827F7E43
:103C88007F83817E7D7C7E81857F7C85837F797A39
:103C9800838282807D8082827E7C817D7B7F7D8322
:103CA8008584837B7F7E7B837E7E837D82857D7E0C
:103CB8007F7D7F7C7C84827F837F81827B7F808005
:103CC800827F7E807C7F85817E7B7D83817E8082F2
:103CD800807E817E7C80817F7D84837F827B7A7FEA
:103CE80082837F7E80817D7E83827E7A7C85827FCF
:103CF8007F82857B7B7D7D86817D817E827F8081C1
:103D08007D7E7E7F7F828181807F817F7F7D7B82B8
:103D18008283817A7E7F81867B7C8381817C7E80A1
:103D28007F837B82837982807C837F7F807D84818F
:103D38007C808180807E7E7E7F837F7A7E85857D84
:103D480081807B7F807E7C838481817E817D7B8175
:103D58007E80807E8383807F7D7D7D7F827F808063
:103D6800807F808080807E817F7E817E7D81807F54
:103D7800837C7C8283837F7D7F7B787F89857E803F
:103D8800827F7C7F7D807D7B847F82857F827F7C34
:103D9800797B838283847C7A7F8483817C7B7E7E2B
:103DA800838280817F807F7E7E7E8081827E7C810F
:103DB8007F83837A7C7C8189817C7E7D8181807D03
:103DC8007E82808482787E7F7C84827F7F7D8281F0
:103DD8007E7F7F7F82827F7B7D827F7C7C828582E3
:103DE800867F777C81807F80808383807F7A797EDD
:103DF8007F82848483817B7A7D81827F817D7B83BE
:103E0800827F83807D7E7A808181867F7C7C7E85AF
:103E180082807D7C808080817C82877C787B7E84A8
:103E280083817F7D84807F817F827F7C7D7E807E91
:103E380083857E7F7C7D7E7D817E7C7F848B877F72
:103E48007D7B7B7C7E8689847D7778787980838486
:103E58008281817B83847D7D79818786857E7A7C5A
:103E68008285868A7A6B6B7181899093877972745F
:103E7800787E8385838284858A8B80736F818C8426
:103E88007B7170767D8B929186757270768285884B
:103E9800858185878B86796E74878D85776F717537
:103EA800838C91918074716F7C84868A83818382EC
:103EB80087857A7176898E84766E7076838E9391F3
:103EC80080736F6D7884898D867F8483838178750C
:103ED80078898F81787572737A869194897A7270ED
:103EE800757E838A877F838686857B7674808F85B7
:103EF8007A78747377808C938F82757071797F87E5
:103F08008C8381838186847E787F897F7271777EB6
:103F18007F848C918E7D74706C787F898F84858680
:103F2800838581797583877B72727D7F7F878B928A
:103F38008A7B776C6B76808D9086858784807B758D
:103F48007C87867A6C747D8185888E8E8378746D83
:103F58006F79838D8C858788837F79768089837252
:103F68006C787E83878A908C7F78736D6F78868F64
:103F78008A848A8D82807871848A7C6A687A808B48
:103F8800948F92867570696A757F8E948A868C87FD
:103F98007E7D71758B8A78676F7E818C918D8F811C
:103FA800746F68707A83909086858A807C80788820
:103FB8008E78645C77858EA09690846C6E6967793C
:103FC8007F8D968A868B867A7E787F91806A596BF8
:103FD800858A9D9D908D72696D64737E82959286A7
:103FE80087877F7D7E79878D7A615B768791A297B7
:103FF8008E826A6E6C677B7E85958A868D847D7FCE
:104008007685927C64536B848CA7A6948A6B646AC9
:10401800637381839492838C8B7C80777C96856A8A
:10402800515C7F87A1B09C8E745F65646B83848EBE
:1040380098868A8A797D7E7B929476584D6B859591
:10404800B0A99782626164637A8589968C888E7F2D
:10405800787E78869A81624C5E808EACB19C8C6644
:104068005B64627885889289808D8D7E7E7A7F9761
:1040780088695154798AA0B3A3937558616470878D
:10408800878F907E8489857F797B8C9A825F4D5F4C
:104098007B8DACB39F8A68596362768889968C7FDA
:1040A80088858078788091997C584D688199AFAAE5
:1040B8009C805D5A636C83898C9285808584807925
:1040C8007B82949A7B554A64819CB2AD9C815958F5
:1040D800616B88888C938383858280757B859397B1
:1040E80079564C67849CB0AB9D7E595761708B8A1A
:1040F8008B928482827B81787B868C9C845F4E5EE7
:104108007D92AAAA9F8A6459626A848B8791837E6A
:104118008B81807B72858896946950526F8FA2B18B
:10412800AC9371565861758E9092917F8182797E99
:1041380070798C8EA3885C4F547794A7B4A98C634C
:10414800505765819196998578827F7E7B718285AB
:104158009BA171564C658396B1B09D7B5556627391
:104168008C90948F7A7D857C807679868BA5865A0B
:104178004F577D93A5B3A48A60515B66879696993D
:1041880081747A7A7F837A798281A0A0735746688E
:104198008596ABA69E7E5658637A959594877271DC
:1041A8007B8488877A7E7B83A48D6C4F557C899C21
:1041B800A89F966F505E6B8899938E7E6B748384EC
:1041C8009088747D7486A6896B4F5E80879BA2A1B8
:1041D800986A555C6A8B959493816F727884898606
:1041E8007A7A7D80A49A74534F727D93A7A4A77C92
:1041F80055596180929098867373798488817F7607
:10420800717C89AEA5765247647590A8ABAE805A8A
:104218005C617D8F8D94847072788A9184807767D1
:104228007882A1B2845F4B5A75879EA7A98C615D7D
:10423800637A938B8C827377798692877C7669719F
:104248008091B29E785349627695A4AAAB84645C47
:1042580058788B8D958A7E79737B8B897F776E6E84
:104268007F869FB3916A464C6E83A0A5A39D71601B
:10427800616B8C8884897E7F7E7D8A887E766E726B
:1042880076828C9CB19A704A48607895A1AAAB8BCB
:104298006C5C5C7382858A8A88837B8087847D7264
:1042A8006D7678858B99AF99704C4A6277939DA902
:1042B800AD896C5E61767C858E88867E7E878382FA
:1042C8007B6F7073788B919FA98E6D4B4C637A943A
:1042D8009DA6A99278635868777E8D908F8C7D7C97
:1042E8007F7C7F79717576798D8FA0AD8C6B454712
:1042F80064799AA1ACB190745B546872818F92957D
:1043080090857B77757572737A848A8C8E8E9C9271
:104318007453455E7893A4A8AD9C7D614B556E821D
:10432800959B989184797470747D7D7E7A7E85855D
:104338008E8B94967C61495A758B9FA1A9A282673E
:1043480050546D7F919A9C9686756D6D737A8286AE
:1043580087817D80838C858B907E664F5B7790A369
:10436800A2A2987D6651577083979E9B9582716A29
:104378006B7580828588837F7A7B858B8A918A7921
:104388005F53657A95A39F9F8C746355657B899A63
:10439800999389766F6D737F838784817F787E8315
:1043A800878F8385897D6D565F7A91A39D958E7DD4
:1043B8006C5C5C778894998F8C82736F6E7683853A
:1043C80086857E7E7B7C85878B8383887C6D59631D
:1043D8007D93A39B928A7B6E5E6075859496918D82
:1043E80081756D6D7581868A89837F797880848CE3
:1043F800877F867F75625E778CA09E908E7F7064C3
:104408005C76868F948989837C7770777E858581B1
:10441800817E7E7E808686867E7785857C6C6675C5
:104428008495938C8D858071636D7B868B888A8C4F
:1044380087817970767A7E8480838482807C828189
:10444800828177868B83725F6E7D91988C9088814C
:1044580077636A77848C87868B8A80767278818185
:10446800807D7E8180858485837D7978778390902F
:10447800806A686E7E8B8990928D897469696E7F77
:10448800848791918F827271727B817E828483820C
:10449800818483807B767B7985938F826A666D7C45
:1044A8008D8C91948E877166686F81868B8F918EC3
:1044B80080726C747D828280838382818183828012
:1044C8007979767C8E908E7A69696C7E868D9897DC
:1044D800968670635B697E87929598968470646708
:1044E800737F85888A8986817D7E7D7E7977797AD2
:1044F8008D96948268636477868B97969991776A8C
:104508005D6073808D93979A8F806C65686E7B84ED
:104518008E94938E8279737072747980848F9A9F47
:1045280093745A4E5C778F9FA3A09987715F575EEB
:104538007187959A9B978D7E6C62656D7B868D944D
:1045480094918377726E71757981868D969A957C30
:1045580061515871899CA2A29A8B7762585B6B81D2
:10456800929C9C998F817063626977848D949694EC
:104578008B7C6F6769717A848B9197959286705C52
:10458800515D7790A2A49E938375655D626E808F5E
:10459800989A938A82786E696A737F878D8F9090D4
:1045A800877B716A6E747B83878E93949387735F1E
:1045B800545D758D9FA29C938779695F606C7E8E30
:1045C8009798938C82786F6A6B727D868D919190A3
:1045D800887C706A6B737C858B8F92918F877765E7
:1045E800585C6F889BA19D92877D7067636877860A
:1045F8009195938D867F77716D6F767F878C8E8E80
:104608008C857B716C6E757D84898C90919088798E
:10461800675A5E6E85989E9C94897F7268666A77F1
:10462800838C91918E89837C746E6C727C858C8F5F
:10463800908C867D736E6E737B858A8D908C8D864B
:104648007A6D5F616D8194999A91888378716B68AE
:10465800707B8790918E8983807B757170747D845F
:104668008B8E8E8A837C747171757C848A8D8F8B16
:104678008A857B6F61626D81949A9B928882766E3F
:104688006A6A747D888F8E8D8783807B7671727756
:104698007F878B8C8885807A777475797D85898BFF
:1046A8008C8685827C7568686E7E8F94958D8582F0
:1046B8007C79757072777F878A8A888382807E7A10
:1046C8007675777D8488898785817D797676797D09
:1046D80084888A8A8586837D7569696E7D8D9396BF
:1046E8008F87837B78726E727781898C8C878481BF
:1046F8007F7D7876757A7F848685858583807A76CE
:1047080076787F85888A8783848280776D6B6E7ED2
:104718008B92948C87837D7B747072757E868A8C6D
:10472800878481807F7C7977787D8185868584827E
:104738007F7C7978797C848889898181807F7B7086
:104748006E6F7A898F938E86837D7B787374757C80
:10475800858A8B86817E7F80807D7A797B7E828444
:1047680083828180807D7A7A7C81878886817B7E3E
:1047780081827F7671717A868C8F8A83817E7E7C36
:104788007978777C8184858382828383807D797A36
:104798007A7D8081838383837F7C7A7A7E82868414
:1047A800837E7F8384837971707482898E8C8583FC
:1047B800807F7F797876787E8185848383838482FD
:1047C8007E7A77797B7F8283848383817E7C7A7B00
:1047D8007E838685837F8183837F75707078858CDF
:1047E8008F8B85837F7F7C7775757A8085888582B6
:1047F80080818282817D7A797A7D7F8283838381B9
:104808007F7E7C7C7E828484817E7E8083827D75AF
:1048180071747C868C8D8983807F7E7C7977777BA9
:104828007F82848484858585827D7976777A7E8285
:1048380085868583807D7B7C7E828383807F808361
:1048480084807972717780898C8B86828181807D62
:10485800787473787F85888785848484837F7A7663
:1048680075787D82848482828282807E7D7D7F824B
:1048780083827E7D7E8185837E7672757C868B8A37
:104888008682818282807A7573767D848787858324
:10489800838383807B7776797E828383818181811C
:1048A800807E7E7F818283807D7C7E8285837E760A
:1048B80073767D8589898582818283817B77757707
:1048C8007C8185858483838483817C7876787C81E8
:1048D8008484827F7F808282817F7E7E7F80807FCA
:1048E8007E7E808485847F7975757A8085878684C5
:1048F800838383817E7976767A7F838484838384B5
:1049080084827F7B78797B7F8181807F7F818384AC
:1049180082807E7D7E7E7F7E7E7F81858685807A91
:104928007473767C83878988868584817E79767599
:10493800777C82858685848382817F7D7B7A7B7E76
:104948008081807F7E7F8081838281807E7E7F8060
:10495800808080808182817F7B78787A7E83868759
:10496800868482807F7F7D7C7A7A7B7D8082848446
:1049780083828282817F7D7B7A7B7D7F8080807F3E
:104988008182848482807D7C7D7E7F80808081821C
:1049980082807D7A78797C81848686848280807F13
:1049A8007D7C7B7B7C7E80828383838281807F7E0B
:1049B8007D7D7D7D7E7F80807F7F7F7F81838483F7
:1049C800817E7D7C7D7E80818181807F7D7C7C7CF9
:1049D8007D7F80828383848382807E7D7C7C7D7ED4
:1049E8008080818181818181807F7E7E7E7F7F80C2
:1049F8007F7E7E7F808081807F7F80828382807DB2
:104A08007C7C7E808282817F7E7C7B7B7D808284B1
:104A1800858482807F7F7F7E7E7D7D7D7F80828290
:104A28008180808080807F7E7E7D7E7F7F7F7F7F8C
:104A38007F8182848484817E7B787A7C808384846D
:104A480081807F7F808181817E7C7B7A7B7D7E8176
:104A5800828485858482807E7D7D7C7C7C7C7E8052
:104A68008284858584827F7D7C7C7C7D7E7F7F7F40
:104A78007F80818283838382807E7D7C7B7C7D7F37
:104A880081828282828181807F7F7E7E7D7D7C7C27
:104A98007D808284858483817F7E7E7E7F7E7E7C0E
:104AA8007B7B7C7E8183848585848381807E7C7BFF
:104AB8007A7B7C7E8082838382828281817F7F7EF3
:104AC8007E7E7D7D7D7D7D7E808284858584827FDE
:104AD8007D7C7B7B7C7D7E7F8082828383838280DA
:104AE8007E7D7D7D7D7E7E7E7F80818283838281C7
:104AF8007F7F7E7E7E7E7E7E7E7F808182828281B7
:104B0800807F7F7F7E7E7E7E7E7E7F8081828281A7
:104B1800807F7F7E7E7F7F7F7F8080808080808097
:104B28007F7F7F7F7F7F7F7F8080818080807F7F86
:104B3800808080807F7F7F7F7F7F807F7F80808075
:104B480080807F7F7F7F7F808080807F7F7F7F7F67
:104B58007F7F7F7F8081818181807E7D7D7D7E7F5B
:104B68008081818181807F7F7E7E7E7F8080808042
:104B7800808080808080807F7F7F7E7E7F7F7F8037
:104B880080808080808080807F7F7F7F7F7F7F8024
:104B98008080808080808080807F7F7F7F7F7F7F14
:104BA8007F7F7F7F7F808080808080808080808002
:104BB8007F7F7F7F7F7F7F7F7F80808080808080F6
:104BC8007F7F7F7E7E7F7F80808080807F7F7F80E9
:104BD800808080807F7F7F7F7F7F7F7F7F808080D6
:104BE8008080807F7F7F7F7F7F7F808080808080C4
:104BF800807F7F7F7F7F80807F7F7F7F7F7F8080B8
:104C0800808080808080807F7F7F7F7F7F7F7F80A4
:104C18008080808080807F7F7F7F7F7F7F7F808094
:104C28008080808080808080808080807F7F7F7E81
:104C38007F7F7F808080808080807F7F7F7F7F7F75
:104C48008080808080808080807F807F807F807F60
:104C5800807F807F807F807F807F807F807F7F8054
:104C68007F807F807F807F807F807F807F80808043
:104C78007F807F807F807F807F807F807F807F8034
:104C88007F80807F807F80807F807F807F80808022
:104C98007F80807F807F807F807F807F807F807F14
:104CA80080807F80807F807F807F807F807F7F8003
:104CB8007F807F80807F807F807F807F8080807FF3
:104CC800807F807F807F80807F80807F807F807FE3
:104CD800807F807F8080807F807F808080807F80D1
:104CE8007F807F807F807F807F807F80807F8080C3
:104CF8008080807F807F807F807F807F807F807FB3
:104D0800807F807F7F7F7F7F80807F807F7F8280A2
:104D18007D85807D817C81867F7F7B7982807C8692
:104D28008780827B747A7D828A827F7E7783867B86
:104D38007C8183817D818081817B83837A7E807E73
:104D48007E7B7E8786828273707B7F898F827B7E63
:104D58007F7B797F87867E7B7D8186877F7D7E7856
:104D68007E828382817E787A7C7D7C7F8882848340
:104D7800797F8283857B787D7F888B7F8080767D35
:104D88008283827F7C76797E837D7A858381837C2A
:104D98007F8681827C727F868B8A7D7F7B78818407
:104DA800807F7F77797E7E7E7B84887F827E7C820F
:104DB8007E838479787D8692867A7A7A80848083E5
:104DC800877B766F6C8188858E88828276767C7EFA
:104DD80080807B7D89908B8175757F8384838680B5
:104DE800786E65798A878E8B83857A717A7F8082DF
:104DF800797D85878E9185726D738196927D726CAF
:104E08006C7881858E8E898177747B8282817A78AD
:104E18008184888F8B80716F76899B8C796C6770A1
:104E28007A808790928A7C717782827E79757D8478
:104E380087929185766A6E8197978771686F6E778A
:104E480083869598877D7A787A7971757D818D9436
:104E580092907C6969748C998C796E7071757D817A
:104E68008F9A8D807A777B7A70747C7D8C8F8D9CFD
:104E78008D6E65677F9B92766C737A817B778A9358
:104E88008D857A7A827C7071777C8B8C8C9F8F7100
:104E98006665819C927569717A807B7688938E8825
:104EA8007C7B817A7071777E8A87879A917D6E661E
:104EB800819A927561657889847A839296897877E0
:104EC8007C7C746D76828A898A97927C6966819CDB
:104ED80097755F62748A88797F909B8D78747C82DD
:104EE80074676D7F918F8A9594816A66839F9066B7
:104EF800576A83938778828E8F8475758385756DDD
:104F08006F80918889948C7D6B6C8D9D825F5B72BC
:104F18008D93807A868D8D7F727A8881756F6D7D8D
:104F28008E888E978A7B707D98906C4F587995986B
:104F380088888E8B7F706E7D8881767173858D866B
:104F48009091837470899D89625063839692858954
:104F58008E857A707485887C71717B88888691903B
:104F6800816E75969A7A58526F90968B868C8D843E
:104F7800736B7987847A727683898287908A7B6B50
:104F8800809F956D51577A9592878B908A7D6C6E2C
:104F98008287837C7379837F7F8B908B7A7190A3D0
:104FA8007F584D5F899D908B928D84726674838241
:104FB80080797884857D858F8A7F6F81A1926650FC
:104FC800587B9C95878D8D897D6A6C7E85847D75DF
:104FD8007E86807F8B8C897773939E7C564C6590F8
:104FE800A0928C8E89827266738087887F7A7D7F93
:104FF8007B7F8A8C8874769A9E7D554A68909D8FAF
:105008008A928D806E65768586847E7C827F7681A5
:105018008989857583A39868495170969E8F929562
:10502800887A686177878687817D827C758188899F
:10503800867784A2966B4C516E909E939796877B49
:10504800655E6F7E8E9387807F83827D7774787BA1
:1050580076859CA59E715054668B939196918F7717
:105068006266738D90817D7D8B907F7471727C7781
:10507800809AA7A1745250638A9394988F907C6207
:10508800656D8693837F7E8892847871737879744E
:105098008DA7A9915A4B5675969494938E8B7163EC
:1050A80066708C9087837C888E82796F73797B7623
:1050B8008FA6A68E574C5A7A97919394928B6B5ED3
:1050C8006476928F8480808D8F817270757A7A72FF
:1050D8008EA5AA8E594D5A7D948F9191928A6B61B3
:1050E8006679908E847E818D8D81727177797973DE
:1050F8008EA6AA8D574E5A7D958D9192948D6C608F
:1051080064778F8B837F859591806F6B72777877C3
:1051180094A7A98859535C7A8B8893959A8D6B616B
:1051280063798C8782808D988D7A6A6D7479757AA7
:105138009CABA678515365868B8891959D86666051
:1051480066818D848182909689776B727578737A7F
:105158009DAEA778525566828583909AA188696129
:105168006980877F7D86969888726B72757972825E
:10517800A3AE9D69515870878387929D9F7F665F14
:105188006B81857F808C9997836E6C747676708539
:10519800A5AD9868545C70848086939C9F826861F2
:1051A800677E85818388969788746A707478737C23
:1051B8009DAAA378585B687F7E808F9BA78D6C61C2
:1051C8006479827D808A999B8B746C7173756D7B11
:1051D8009DACA5795C5C697D7A7F8D9AA38D70659D
:1051E8006678817F818692988D7B6D7074777274F2
:1051F80092A7A988605C667B7F7B8895A394746876
:105208006578817C7E84959A8F7A6D7175777074D4
:1052180093A6A68464616A7A78788897A38F736B5B
:105228006C7C7F7A7C8797988A756E7476766E7CAC
:105238009AA89E756063707E777D8C9AA187716944
:105248006E7C7C7A7F8C9A968674717574726F8284
:105258009CA49574686B7478737D8C9B9A83736F28
:10526800757C78787F8E9791817576777570718A5D
:105278009EA18A6F696E76777682909B947F737011
:105288007579787B8490968F81777674726F748A3B
:105298009C9D89746F727774737E8D978F7F7776F4
:1052A8007A79767A8591938B7F787976726F79900F
:1052B8009C97807171767974768390968B7C7676DC
:1052C8007978777D879191897E7979767370798CF1
:1052D8009893837776797873747E8B908A807B7ABB
:1052E8007C7A787B848E90897F7A7B787370788CCF
:1052F80097928277777A7974747E898E88817D7C9B
:105308007C79787C848C8D89807B7A7774727888B4
:105318009290867D7C7C79737077828B8B84817F79
:105328007E7C797A80898E8A827C7C7A7572748296
:1053380090918A7F7D7E7B7671747F878A86828151
:105348007E7C797A7E868B89847F7F7C7774747F74
:105358008B8E8A827E7E7B7772747C848986838238
:105368007F7F7C7A7E83888985807E7E7975737B52
:10537800898E8C847E7F7D79747279808686848319
:10538800807E7D7C7E83878886817F7D7876747A2F
:10539800888C8B857F807D787471788186878483FB
:1053A800807E7E7C7D83878886807E7D7876747A11
:1053B800888D8B8580817D787371788086878483DA
:1053C800817E7E7C7E83868885807E7D78767378F4
:1053D800878D8C8681817E797471777F85878584B6
:1053E800817E7D7C7D82868887827E7E79757374D6
:1053F800828D8E8A8382807A7470747D8487868396
:10540800827F7D7D7D80868787847F7E7A757373B2
:105418007D8B8F8C8682817C767171798186878578
:1054280083807D7D7D7F83868786827F7C7773738B
:1054380077838D8E8A838180797571747D83878661
:1054480083827F7D7E7D81858787847F7D7A757362
:10545800747B898E8D8781837E777370777F84874D
:105468008483827D7E7E7F83868785817F7D797533
:105478007474808C8E8B8482827C7771727A818539
:10548800858383817E7F7D8085878784807E7C7706
:10549800737276868F8E8982828179736E737D832B
:1054A80086858484807E7E7D82878786827E7D7ADB
:1054B8007472737C8B908C8682837E76706F777F14
:1054C80083878685847E7E7D7D83868787827F7CB1
:1054D8007A7572737C8B908D8783847E756F6E76F8
:1054E8007E83878685847F7E7D7E84878786827F8C
:1054F8007D787372757F8D8F8B8784847C736F6ED4
:10550800787F83888686837D7E7D7E848687868273
:10551800807D777272747F8D908D8885857C736E9F
:105528006D767E83888786847E7E7E7E8586868667
:1055380082807C767271747F8D908E8886857C736C
:105548006D6C767D84888787857E7E7D7D84868761
:105558008783817D77726F727C8A93908A86857E35
:10556800746D6B727C8287888686817D7E7E838758
:105578008687837F7D777370727B8892908B868510
:1055880080756E6B707B8186898787827C7D7D8143
:10559800888787857F7F79737170788590928D88E9
:1055A8008682776F6C6F777F84898887847E7D7E1B
:1055B8007F87888685807F7B75717175818E938ED4
:1055C8008887847A716B6D757C8389898987807EE9
:1055D8007E7D84888686827F7E777471727A8591D3
:1055E800938A888680776E6B6E767F8488888886B3
:1055F800807F7E7F86878585807F7D757370747FC9
:105608008792918789867C756C6B7177808689888B
:1056180088847E807F80888584857F7F7B74737192
:1056280077818B948E86888379736C6D737984887F
:10563800888785827F808083888684817E7F777350
:1056480074717A828A968D85898179746B6E747883
:1056580083888789868180808083868585837F7F0C
:1056680079747571777F859392878A857C766C6C5F
:1056780071757F8787898984818080828686858401
:105688007E7F7D757674737D828D968A888A80790F
:10569800716A6D72798388888B888383807F83851C
:1056A8008585817F7F7B757573747E828E958B89E6
:1056B8008A7F776F696D70798486898B8885828106
:1056C8008183878583817E7F79737572767F828FE8
:1056D800958B89867D756D6B6E727C84888A8A88C5
:1056E8008381827F828685848280807D77757473CA
:1056F8007B818692908888837A736C6C6D747E85C2
:10570800888B8B87838382818485838283807E795B
:105718007474737780828A918C88867F766F6E6DB9
:10572800707981878A8A8986828381818586848443
:1057380082817E77747372787F828A918D88857E64
:1057480075706D6D717A82888B8B88848283828371
:1057580086868384827D7B777474747A8183878E4E
:105768008D86827E78737271717980848886878746
:105778008386868387878383817D7B787575747735
:105788007D8284888E8B84827E7674726F737B812F
:10579800848687888685898784868482827D7B7AC9
:1057A800767675767C808283838A8C827F807B780C
:1057B800767375797C8082838889868988858785D0
:1057C80082827E7C7B77777675787C818483868CF1
:1057D8008983817F7B78767375797C7F82858889D8
:1057E80088898786878481807D7C7A767677777BBF
:1057F80080818080858B878180817F7C79767577B1
:105808007A7B7E828689898988878786827F7C7B66
:105818007A787779797B80828280808689847F8094
:10582800817E7B787575787A7D8084898A8A898774
:105838008584817E7C7D7D7D7B79797B7D81807D82
:105848007F828586838181817F7D7A7676797A7B6E
:105858007E818589898886858583807E7E7F7E7C1A
:105868007B7A7A7B7E817F7E80828484808081803F
:105878007E7C7977797B7C7D7F8286878786848327
:10588800848382807E7F7E7D7C7A7A7B7E807F7D2A
:105898007E818384817F81827F7D7B79797A7B7C1D
:1058A8007E818688888785848483807F7F807F7CCB
:1058B8007A7A7A7D7E7F807F81818181807F7E80F8
:1058C800807F7E7C7B7B7D808080818383838483D3
:1058D8008281807F808081807F7F7F7E7D7E7E7ECB
:1058E8008080817E7D7C7C7C7C7E808283838180BD
:1058F8007F7E7E7E7E808182807F80807F7E7F81AA
:1059080082828384827F7E7D7C7C7C7E7F80818096
:105918007F7E7D7D7D7F7F7E8184868583817D7B83
:105928007C7D7E7E818281807E7F7E80827E7A7D84
:105938008486827F7E828484817C7B7D7E7C7D7C64
:105948007D7F8181817F80817F8182828281807F4A
:105958007D7D7F807E7E7D7E818081817F8081824A
:1059680082807F8080807E7D7F828482817F7D7C33
:105978007A7B7E7F7F828382807D7E81818080802A
:105988008081807F7F7E81807F7F7F7F7F7F808116
:10599800827F7F807E7F7F82837973798A938A7BF7
:1059A800747B84837A7378848B867D7A8185837C03
:1059B800787F84827D7D7F8283807F786E718292FA
:1059C800948A7A798084887C6A637697A28E6E68D6
:1059D8008093917B636881959280788591886E63C6
:1059E800708890837578878F897972788287827DAD
:1059F8007D8182807E8081807E7C7F8383807D7CA8
:105A08007F807F7F7E7F81828180807F7F80807E94
:105A18007C7C7D80807F81838484818081807D7C83
:105A28007E80817F7E7F8282807E7D81827F7C7C7A
:105A380080827F7B7B818787827C7D81807C777772
:105A48007D8182818285878683807F7F7E7C7B7D46
:105A58007F7F7E7F828381808082817D7B7C808046
:105A68007D7A7D8588857F7B7F817F7A75787E8149
:105A7800828182868886828080807E7B7B7D7F7F14
:105A88007D7E8283827F7F83837E7A7A80817D791F
:105A98007B838A88817B7E83817B74747C8182800E
:105AA80080868A8986807E7F807F7A777B7F827FE7
:105AB8007C7D828687827D7D7F807D78787C8083EF
:105AC80082878C8A837A797B7A76727680868685D5
